{
  "_format": "hh-sol-artifact-1",
  "contractName": "Advertisement_V1",
  "sourceName": "contracts/Advertisement_V1.sol",
  "abi": [
    {
      "anonymous": false,
      "inputs": [
        {
          "indexed": false,
          "internalType": "bool",
          "name": "",
          "type": "bool"
        }
      ],
      "name": "BidDone",
      "type": "event"
    },
    {
      "anonymous": false,
      "inputs": [
        {
          "indexed": false,
          "internalType": "bool",
          "name": "",
          "type": "bool"
        }
      ],
      "name": "Deployed",
      "type": "event"
    },
    {
      "anonymous": false,
      "inputs": [
        {
          "indexed": false,
          "internalType": "uint8",
          "name": "version",
          "type": "uint8"
        }
      ],
      "name": "Initialized",
      "type": "event"
    },
    {
      "anonymous": false,
      "inputs": [
        {
          "indexed": true,
          "internalType": "address",
          "name": "previousOwner",
          "type": "address"
        },
        {
          "indexed": true,
          "internalType": "address",
          "name": "newOwner",
          "type": "address"
        }
      ],
      "name": "OwnershipTransferred",
      "type": "event"
    },
    {
      "anonymous": false,
      "inputs": [
        {
          "indexed": false,
          "internalType": "bool",
          "name": "",
          "type": "bool"
        }
      ],
      "name": "Registered",
      "type": "event"
    },
    {
      "anonymous": false,
      "inputs": [
        {
          "indexed": false,
          "internalType": "bool",
          "name": "",
          "type": "bool"
        }
      ],
      "name": "Settled",
      "type": "event"
    },
    {
      "anonymous": false,
      "inputs": [
        {
          "indexed": false,
          "internalType": "bool",
          "name": "",
          "type": "bool"
        }
      ],
      "name": "Withdraw",
      "type": "event"
    },
    {
      "inputs": [
        {
          "internalType": "uint256",
          "name": "_days",
          "type": "uint256"
        },
        {
          "internalType": "uint256",
          "name": "_amount",
          "type": "uint256"
        }
      ],
      "name": "Bid",
      "outputs": [],
      "stateMutability": "payable",
      "type": "function"
    },
    {
      "inputs": [],
      "name": "bidCount",
      "outputs": [
        {
          "internalType": "uint256",
          "name": "",
          "type": "uint256"
        }
      ],
      "stateMutability": "view",
      "type": "function"
    },
    {
      "inputs": [
        {
          "internalType": "uint256",
          "name": "",
          "type": "uint256"
        }
      ],
      "name": "bids",
      "outputs": [
        {
          "internalType": "address",
          "name": "sender",
          "type": "address"
        },
        {
          "internalType": "uint256",
          "name": "availableAmount",
          "type": "uint256"
        }
      ],
      "stateMutability": "view",
      "type": "function"
    },
    {
      "inputs": [
        {
          "internalType": "address",
          "name": "_adr",
          "type": "address"
        }
      ],
      "name": "getBalance",
      "outputs": [
        {
          "internalType": "uint256",
          "name": "",
          "type": "uint256"
        }
      ],
      "stateMutability": "view",
      "type": "function"
    },
    {
      "inputs": [
        {
          "internalType": "uint256",
          "name": "_id",
          "type": "uint256"
        }
      ],
      "name": "getBid",
      "outputs": [
        {
          "components": [
            {
              "internalType": "address",
              "name": "sender",
              "type": "address"
            },
            {
              "internalType": "uint256",
              "name": "availableAmount",
              "type": "uint256"
            }
          ],
          "internalType": "struct bid",
          "name": "",
          "type": "tuple"
        }
      ],
      "stateMutability": "view",
      "type": "function"
    },
    {
      "inputs": [],
      "name": "getBidsCount",
      "outputs": [
        {
          "internalType": "uint256",
          "name": "",
          "type": "uint256"
        }
      ],
      "stateMutability": "view",
      "type": "function"
    },
    {
      "inputs": [],
      "name": "getName",
      "outputs": [
        {
          "internalType": "string",
          "name": "",
          "type": "string"
        }
      ],
      "stateMutability": "view",
      "type": "function"
    },
    {
      "inputs": [],
      "name": "getTotalBalance",
      "outputs": [
        {
          "internalType": "uint256",
          "name": "",
          "type": "uint256"
        }
      ],
      "stateMutability": "view",
      "type": "function"
    },
    {
      "inputs": [
        {
          "internalType": "address",
          "name": "_trustedService",
          "type": "address"
        }
      ],
      "name": "initialize",
      "outputs": [],
      "stateMutability": "nonpayable",
      "type": "function"
    },
    {
      "inputs": [
        {
          "internalType": "address",
          "name": "_address",
          "type": "address"
        }
      ],
      "name": "isRegistered",
      "outputs": [
        {
          "internalType": "bool",
          "name": "",
          "type": "bool"
        }
      ],
      "stateMutability": "view",
      "type": "function"
    },
    {
      "inputs": [],
      "name": "name",
      "outputs": [
        {
          "internalType": "string",
          "name": "",
          "type": "string"
        }
      ],
      "stateMutability": "view",
      "type": "function"
    },
    {
      "inputs": [],
      "name": "owner",
      "outputs": [
        {
          "internalType": "address",
          "name": "",
          "type": "address"
        }
      ],
      "stateMutability": "view",
      "type": "function"
    },
    {
      "inputs": [
        {
          "internalType": "address",
          "name": "",
          "type": "address"
        }
      ],
      "name": "payAccounts",
      "outputs": [
        {
          "internalType": "bool",
          "name": "registered",
          "type": "bool"
        },
        {
          "internalType": "uint256",
          "name": "balance",
          "type": "uint256"
        }
      ],
      "stateMutability": "view",
      "type": "function"
    },
    {
      "inputs": [],
      "name": "register",
      "outputs": [],
      "stateMutability": "nonpayable",
      "type": "function"
    },
    {
      "inputs": [],
      "name": "renounceOwnership",
      "outputs": [],
      "stateMutability": "nonpayable",
      "type": "function"
    },
    {
      "inputs": [
        {
          "internalType": "uint256",
          "name": "_id",
          "type": "uint256"
        },
        {
          "internalType": "address[]",
          "name": "_shareholders",
          "type": "address[]"
        },
        {
          "internalType": "uint256[]",
          "name": "_shareAmounts",
          "type": "uint256[]"
        }
      ],
      "name": "settle",
      "outputs": [],
      "stateMutability": "nonpayable",
      "type": "function"
    },
    {
      "inputs": [],
      "name": "totalBalance",
      "outputs": [
        {
          "internalType": "uint256",
          "name": "",
          "type": "uint256"
        }
      ],
      "stateMutability": "view",
      "type": "function"
    },
    {
      "inputs": [
        {
          "internalType": "address",
          "name": "newOwner",
          "type": "address"
        }
      ],
      "name": "transferOwnership",
      "outputs": [],
      "stateMutability": "nonpayable",
      "type": "function"
    },
    {
      "inputs": [],
      "name": "trustedService",
      "outputs": [
        {
          "internalType": "address",
          "name": "",
          "type": "address"
        }
      ],
      "stateMutability": "view",
      "type": "function"
    },
    {
      "inputs": [
        {
          "internalType": "address",
          "name": "_withdrawer",
          "type": "address"
        }
      ],
      "name": "withdrawMoney",
      "outputs": [],
      "stateMutability": "nonpayable",
      "type": "function"
    }
  ],
  "bytecode": "0x608060405234801561001057600080fd5b50612821806100206000396000f3fe60806040526004361061011f5760003560e01c8063715018a6116100a0578063c3c5a54711610064578063c3c5a547146103a8578063c4d66de8146103e5578063de0306371461040e578063f2fde38b14610437578063f8b2cb4f146104605761011f565b8063715018a6146102d25780638c85c67f146102e95780638da5cb5b14610327578063ad7a672f14610352578063b40a56271461037d5761011f565b80632f971029116100e75780632f971029146101e75780633c889e6f146102105780634423c5f11461024d57806347a0375b1461028b57806363505ae8146102a75761011f565b806306fdde031461012457806312b583491461014f57806317d7de7c1461017a5780631aa3a008146101a55780632998aaba146101bc575b600080fd5b34801561013057600080fd5b5061013961049d565b6040516101469190611f43565b60405180910390f35b34801561015b57600080fd5b5061016461052b565b6040516101719190612180565b60405180910390f35b34801561018657600080fd5b5061018f61053d565b60405161019c9190611f43565b60405180910390f35b3480156101b157600080fd5b506101ba6105cf565b005b3480156101c857600080fd5b506101d161072a565b6040516101de9190611ea0565b60405180910390f35b3480156101f357600080fd5b5061020e60048036038101906102099190611a97565b610750565b005b34801561021c57600080fd5b5061023760048036038101906102329190611ac0565b61090e565b6040516102449190612165565b60405180910390f35b34801561025957600080fd5b50610274600480360381019061026f9190611ac0565b6109a3565b604051610282929190611ebb565b60405180910390f35b6102a560048036038101906102a09190611b72565b6109e7565b005b3480156102b357600080fd5b506102bc610c2a565b6040516102c99190612180565b60405180910390f35b3480156102de57600080fd5b506102e7610c3c565b005b3480156102f557600080fd5b50610310600480360381019061030b9190611a97565b610c50565b60405161031e929190611eff565b60405180910390f35b34801561033357600080fd5b5061033c610c81565b6040516103499190611ea0565b60405180910390f35b34801561035e57600080fd5b50610367610cab565b6040516103749190612180565b60405180910390f35b34801561038957600080fd5b50610392610cb1565b60405161039f9190612180565b60405180910390f35b3480156103b457600080fd5b506103cf60048036038101906103ca9190611a97565b610cb7565b6040516103dc9190611ee4565b60405180910390f35b3480156103f157600080fd5b5061040c60048036038101906104079190611a97565b610d18565b005b34801561041a57600080fd5b5061043560048036038101906104309190611ae9565b610f2c565b005b34801561044357600080fd5b5061045e60048036038101906104599190611a97565b611605565b005b34801561046c57600080fd5b5061048760048036038101906104829190611a97565b611689565b6040516104949190612180565b60405180910390f35b606a80546104aa90612335565b80601f01602080910402602001604051908101604052809291908181526020018280546104d690612335565b80156105235780601f106104f857610100808354040283529160200191610523565b820191906000526020600020905b81548152906001019060200180831161050657829003601f168201915b505050505081565b60006105356116dd565b606554905090565b6060606a805461054c90612335565b80601f016020809104026020016040519081016040528092919081815260200182805461057890612335565b80156105c55780601f1061059a576101008083540402835291602001916105c5565b820191906000526020600020905b8154815290600101906020018083116105a857829003601f168201915b5050505050905090565b60001515606760003373ffffffffffffffffffffffffffffffffffffffff1673ffffffffffffffffffffffffffffffffffffffff16815260200190815260200160002060000160009054906101000a900460ff16151514610665576040517f08c379a000000000000000000000000000000000000000000000000000000000815260040161065c90612105565b60405180910390fd5b600060405180604001604052806001151581526020016000815250905080606760003373ffffffffffffffffffffffffffffffffffffffff1673ffffffffffffffffffffffffffffffffffffffff16815260200190815260200160002060008201518160000160006101000a81548160ff021916908315150217905550602082015181600101559050507fea82f36a9f1ed7a4ea272e026aee6eca25d7c1864be8f9aa0aa87a69b07ba2f0600160405161071f9190611ee4565b60405180910390a150565b606960009054906101000a900473ffffffffffffffffffffffffffffffffffffffff1681565b6107586116dd565b6000606760008373ffffffffffffffffffffffffffffffffffffffff1673ffffffffffffffffffffffffffffffffffffffff16815260200190815260200160002060010154116107dd576040517f08c379a00000000000000000000000000000000000000000000000000000000081526004016107d490612005565b60405180910390fd5b60008190506000606760008473ffffffffffffffffffffffffffffffffffffffff1673ffffffffffffffffffffffffffffffffffffffff1681526020019081526020016000206001015490506000606760008573ffffffffffffffffffffffffffffffffffffffff1673ffffffffffffffffffffffffffffffffffffffff1681526020019081526020016000206001018190555080606560008282546108839190612267565b925050819055508173ffffffffffffffffffffffffffffffffffffffff166108fc829081150290604051600060405180830381858888f193505050501580156108d0573d6000803e3d6000fd5b507ffe589245338ce477b4fb3c95d7fef59c7ae5fb37c54522f0e5e8922e5603924760016040516109019190611ee4565b60405180910390a1505050565b610916611906565b61091e6116dd565b606860008381526020019081526020016000206040518060400160405290816000820160009054906101000a900473ffffffffffffffffffffffffffffffffffffffff1673ffffffffffffffffffffffffffffffffffffffff1673ffffffffffffffffffffffffffffffffffffffff1681526020016001820154815250509050919050565b60686020528060005260406000206000915090508060000160009054906101000a900473ffffffffffffffffffffffffffffffffffffffff16908060010154905082565b60011515606760003373ffffffffffffffffffffffffffffffffffffffff1673ffffffffffffffffffffffffffffffffffffffff16815260200190815260200160002060000160009054906101000a900460ff16151514610a7d576040517f08c379a0000000000000000000000000000000000000000000000000000000008152600401610a7490612065565b60405180910390fd5b8082610a89919061220d565b3414610aca576040517f08c379a0000000000000000000000000000000000000000000000000000000008152600401610ac190612125565b60405180910390fd5b3460656000828254610adc91906121b7565b9250508190555034606760003373ffffffffffffffffffffffffffffffffffffffff1673ffffffffffffffffffffffffffffffffffffffff1681526020019081526020016000206001016000828254610b3591906121b7565b92505081905550600060405180604001604052803373ffffffffffffffffffffffffffffffffffffffff16815260200134815250905060666000815480929190610b7e90612367565b91905055508060686000606654815260200190815260200160002060008201518160000160006101000a81548173ffffffffffffffffffffffffffffffffffffffff021916908373ffffffffffffffffffffffffffffffffffffffff160217905550602082015181600101559050507f55c0e6fa0fb4c0a658e8797829eade06cb231c9e30539911c9d1f0babcdab1596001604051610c1d9190611ee4565b60405180910390a1505050565b6000610c346116dd565b606654905090565b610c446116dd565b610c4e600061175b565b565b60676020528060005260406000206000915090508060000160009054906101000a900460ff16908060010154905082565b6000603360009054906101000a900473ffffffffffffffffffffffffffffffffffffffff16905090565b60655481565b60665481565b6000610cc16116dd565b606760008373ffffffffffffffffffffffffffffffffffffffff1673ffffffffffffffffffffffffffffffffffffffff16815260200190815260200160002060000160009054906101000a900460ff169050919050565b60008060019054906101000a900460ff16159050808015610d495750600160008054906101000a900460ff1660ff16105b80610d765750610d5830611821565b158015610d755750600160008054906101000a900460ff1660ff16145b5b610db5576040517f08c379a0000000000000000000000000000000000000000000000000000000008152600401610dac906120a5565b60405180910390fd5b60016000806101000a81548160ff021916908360ff1602179055508015610df2576001600060016101000a81548160ff0219169083151502179055505b6000606581905550600060668190555081606960006101000a81548173ffffffffffffffffffffffffffffffffffffffff021916908373ffffffffffffffffffffffffffffffffffffffff1602179055506040518060400160405280600d81526020017f4164766572746973656d656e7400000000000000000000000000000000000000815250606a9080519060200190610e8e929190611936565b50610e97611844565b7fb467ef44fa4bb434bc5e0db356e668e4169cbea136cdce07d867bf6b70c8a40d6001604051610ec79190611ee4565b60405180910390a18015610f285760008060016101000a81548160ff0219169083151502179055507f7f26b83ff96e1f2b6a682f133852f6798a09c465da95921460cefb38474024986001604051610f1f9190611f28565b60405180910390a15b5050565b606960009054906101000a900473ffffffffffffffffffffffffffffffffffffffff1673ffffffffffffffffffffffffffffffffffffffff163373ffffffffffffffffffffffffffffffffffffffff1614610fbc576040517f08c379a0000000000000000000000000000000000000000000000000000000008152600401610fb3906120c5565b60405180910390fd5b60008484905011611002576040517f08c379a0000000000000000000000000000000000000000000000000000000008152600401610ff990612045565b60405180910390fd5b60008282905011611048576040517f08c379a000000000000000000000000000000000000000000000000000000000815260040161103f90611fa5565b60405180910390fd5b838390508282905014611090576040517f08c379a000000000000000000000000000000000000000000000000000000000815260040161108790611fc5565b60405180910390fd5b60005b848490508160ff1610156115c557600060676000606860008a815260200190815260200160002060000160009054906101000a900473ffffffffffffffffffffffffffffffffffffffff1673ffffffffffffffffffffffffffffffffffffffff1673ffffffffffffffffffffffffffffffffffffffff168152602001908152602001600020600101541161115c576040517f08c379a000000000000000000000000000000000000000000000000000000000815260040161115390612085565b60405180910390fd5b600073ffffffffffffffffffffffffffffffffffffffff1685858360ff168181106111b0577f4e487b7100000000000000000000000000000000000000000000000000000000600052603260045260246000fd5b90506020020160208101906111c59190611a97565b73ffffffffffffffffffffffffffffffffffffffff16141561121c576040517f08c379a000000000000000000000000000000000000000000000000000000000815260040161121390611f65565b60405180910390fd5b600083838360ff1681811061125a577f4e487b7100000000000000000000000000000000000000000000000000000000600052603260045260246000fd5b90506020020135116112a1576040517f08c379a000000000000000000000000000000000000000000000000000000000815260040161129890612025565b60405180910390fd5b600115156067600087878560ff168181106112e5577f4e487b7100000000000000000000000000000000000000000000000000000000600052603260045260246000fd5b90506020020160208101906112fa9190611a97565b73ffffffffffffffffffffffffffffffffffffffff1673ffffffffffffffffffffffffffffffffffffffff16815260200190815260200160002060000160009054906101000a900460ff16151514611387576040517f08c379a000000000000000000000000000000000000000000000000000000000815260040161137e90611fe5565b60405180910390fd5b82828260ff168181106113c3577f4e487b7100000000000000000000000000000000000000000000000000000000600052603260045260246000fd5b905060200201356067600087878560ff1681811061140a577f4e487b7100000000000000000000000000000000000000000000000000000000600052603260045260246000fd5b905060200201602081019061141f9190611a97565b73ffffffffffffffffffffffffffffffffffffffff1673ffffffffffffffffffffffffffffffffffffffff168152602001908152602001600020600101600082825461146b91906121b7565b9250508190555082828260ff168181106114ae577f4e487b7100000000000000000000000000000000000000000000000000000000600052603260045260246000fd5b9050602002013560676000606860008a815260200190815260200160002060000160009054906101000a900473ffffffffffffffffffffffffffffffffffffffff1673ffffffffffffffffffffffffffffffffffffffff1673ffffffffffffffffffffffffffffffffffffffff168152602001908152602001600020600101600082825461153c9190612267565b9250508190555082828260ff1681811061157f577f4e487b7100000000000000000000000000000000000000000000000000000000600052603260045260246000fd5b905060200201356068600088815260200190815260200160002060010160008282546115ab9190612267565b9250508190555080806115bd906123b0565b915050611093565b507fcc6cec3822e90587fef3287a4bbf78a8f6d243dc2f783733ae7f72dcb881e6bd60016040516115f69190611ee4565b60405180910390a15050505050565b61160d6116dd565b600073ffffffffffffffffffffffffffffffffffffffff168173ffffffffffffffffffffffffffffffffffffffff16141561167d576040517f08c379a000000000000000000000000000000000000000000000000000000000815260040161167490611f85565b60405180910390fd5b6116868161175b565b50565b60006116936116dd565b606760008373ffffffffffffffffffffffffffffffffffffffff1673ffffffffffffffffffffffffffffffffffffffff168152602001908152602001600020600101549050919050565b6116e561189d565b73ffffffffffffffffffffffffffffffffffffffff16611703610c81565b73ffffffffffffffffffffffffffffffffffffffff1614611759576040517f08c379a0000000000000000000000000000000000000000000000000000000008152600401611750906120e5565b60405180910390fd5b565b6000603360009054906101000a900473ffffffffffffffffffffffffffffffffffffffff16905081603360006101000a81548173ffffffffffffffffffffffffffffffffffffffff021916908373ffffffffffffffffffffffffffffffffffffffff1602179055508173ffffffffffffffffffffffffffffffffffffffff168173ffffffffffffffffffffffffffffffffffffffff167f8be0079c531659141344cd1fd0a4f28419497f9722a3daafe3b4186f6b6457e060405160405180910390a35050565b6000808273ffffffffffffffffffffffffffffffffffffffff163b119050919050565b600060019054906101000a900460ff16611893576040517f08c379a000000000000000000000000000000000000000000000000000000000815260040161188a90612145565b60405180910390fd5b61189b6118a5565b565b600033905090565b600060019054906101000a900460ff166118f4576040517f08c379a00000000000000000000000000000000000000000000000000000000081526004016118eb90612145565b60405180910390fd5b6119046118ff61189d565b61175b565b565b6040518060400160405280600073ffffffffffffffffffffffffffffffffffffffff168152602001600081525090565b82805461194290612335565b90600052602060002090601f01602090048101928261196457600085556119ab565b82601f1061197d57805160ff19168380011785556119ab565b828001600101855582156119ab579182015b828111156119aa57825182559160200191906001019061198f565b5b5090506119b891906119bc565b5090565b5b808211156119d55760008160009055506001016119bd565b5090565b6000813590506119e8816127bd565b92915050565b60008083601f840112611a0057600080fd5b8235905067ffffffffffffffff811115611a1957600080fd5b602083019150836020820283011115611a3157600080fd5b9250929050565b60008083601f840112611a4a57600080fd5b8235905067ffffffffffffffff811115611a6357600080fd5b602083019150836020820283011115611a7b57600080fd5b9250929050565b600081359050611a91816127d4565b92915050565b600060208284031215611aa957600080fd5b6000611ab7848285016119d9565b91505092915050565b600060208284031215611ad257600080fd5b6000611ae084828501611a82565b91505092915050565b600080600080600060608688031215611b0157600080fd5b6000611b0f88828901611a82565b955050602086013567ffffffffffffffff811115611b2c57600080fd5b611b38888289016119ee565b9450945050604086013567ffffffffffffffff811115611b5757600080fd5b611b6388828901611a38565b92509250509295509295909350565b60008060408385031215611b8557600080fd5b6000611b9385828601611a82565b9250506020611ba485828601611a82565b9150509250929050565b611bb78161229b565b82525050565b611bc68161229b565b82525050565b611bd5816122ad565b82525050565b611be4816122f0565b82525050565b6000611bf58261219b565b611bff81856121a6565b9350611c0f818560208601612302565b611c1881612438565b840191505092915050565b6000611c306013836121a6565b9150611c3b82612449565b602082019050919050565b6000611c536026836121a6565b9150611c5e82612472565b604082019050919050565b6000611c766021836121a6565b9150611c81826124c1565b604082019050919050565b6000611c996012836121a6565b9150611ca482612510565b602082019050919050565b6000611cbc601d836121a6565b9150611cc782612539565b602082019050919050565b6000611cdf601e836121a6565b9150611cea82612562565b602082019050919050565b6000611d026014836121a6565b9150611d0d8261258b565b602082019050919050565b6000611d256020836121a6565b9150611d30826125b4565b602082019050919050565b6000611d48602c836121a6565b9150611d53826125dd565b604082019050919050565b6000611d6b6019836121a6565b9150611d768261262c565b602082019050919050565b6000611d8e602e836121a6565b9150611d9982612655565b604082019050919050565b6000611db1602b836121a6565b9150611dbc826126a4565b604082019050919050565b6000611dd46020836121a6565b9150611ddf826126f3565b602082019050919050565b6000611df76017836121a6565b9150611e028261271c565b602082019050919050565b6000611e1a6015836121a6565b9150611e2582612745565b602082019050919050565b6000611e3d602b836121a6565b9150611e488261276e565b604082019050919050565b604082016000820151611e696000850182611bae565b506020820151611e7c6020850182611e82565b50505050565b611e8b816122d9565b82525050565b611e9a816122d9565b82525050565b6000602082019050611eb56000830184611bbd565b92915050565b6000604082019050611ed06000830185611bbd565b611edd6020830184611e91565b9392505050565b6000602082019050611ef96000830184611bcc565b92915050565b6000604082019050611f146000830185611bcc565b611f216020830184611e91565b9392505050565b6000602082019050611f3d6000830184611bdb565b92915050565b60006020820190508181036000830152611f5d8184611bea565b905092915050565b60006020820190508181036000830152611f7e81611c23565b9050919050565b60006020820190508181036000830152611f9e81611c46565b9050919050565b60006020820190508181036000830152611fbe81611c69565b9050919050565b60006020820190508181036000830152611fde81611c8c565b9050919050565b60006020820190508181036000830152611ffe81611caf565b9050919050565b6000602082019050818103600083015261201e81611cd2565b9050919050565b6000602082019050818103600083015261203e81611cf5565b9050919050565b6000602082019050818103600083015261205e81611d18565b9050919050565b6000602082019050818103600083015261207e81611d3b565b9050919050565b6000602082019050818103600083015261209e81611d5e565b9050919050565b600060208201905081810360008301526120be81611d81565b9050919050565b600060208201905081810360008301526120de81611da4565b9050919050565b600060208201905081810360008301526120fe81611dc7565b9050919050565b6000602082019050818103600083015261211e81611dea565b9050919050565b6000602082019050818103600083015261213e81611e0d565b9050919050565b6000602082019050818103600083015261215e81611e30565b9050919050565b600060408201905061217a6000830184611e53565b92915050565b60006020820190506121956000830184611e91565b92915050565b600081519050919050565b600082825260208201905092915050565b60006121c2826122d9565b91506121cd836122d9565b9250827fffffffffffffffffffffffffffffffffffffffffffffffffffffffffffffffff03821115612202576122016123da565b5b828201905092915050565b6000612218826122d9565b9150612223836122d9565b9250817fffffffffffffffffffffffffffffffffffffffffffffffffffffffffffffffff048311821515161561225c5761225b6123da565b5b828202905092915050565b6000612272826122d9565b915061227d836122d9565b9250828210156122905761228f6123da565b5b828203905092915050565b60006122a6826122b9565b9050919050565b60008115159050919050565b600073ffffffffffffffffffffffffffffffffffffffff82169050919050565b6000819050919050565b600060ff82169050919050565b60006122fb826122e3565b9050919050565b60005b83811015612320578082015181840152602081019050612305565b8381111561232f576000848401525b50505050565b6000600282049050600182168061234d57607f821691505b6020821081141561236157612360612409565b5b50919050565b6000612372826122d9565b91507fffffffffffffffffffffffffffffffffffffffffffffffffffffffffffffffff8214156123a5576123a46123da565b5b600182019050919050565b60006123bb826122e3565b915060ff8214156123cf576123ce6123da565b5b600182019050919050565b7f4e487b7100000000000000000000000000000000000000000000000000000000600052601160045260246000fd5b7f4e487b7100000000000000000000000000000000000000000000000000000000600052602260045260246000fd5b6000601f19601f8301169050919050565b7f496e76616c6964207368617265686f6c64657200000000000000000000000000600082015250565b7f4f776e61626c653a206e6577206f776e657220697320746865207a65726f206160008201527f6464726573730000000000000000000000000000000000000000000000000000602082015250565b7f536861726520416d6f756e74206c6973742063616e6e6f7420626520656d707460008201527f7900000000000000000000000000000000000000000000000000000000000000602082015250565b7f496e636f6e73697374656e74206c697374730000000000000000000000000000600082015250565b7f5368617265686f6c646572206973206e6f742072656769737465726564000000600082015250565b7f4e6f7420656e6f7567682062616c616e636520746f2077697468647261770000600082015250565b7f496e76616c696420736861726520616d6f756e74000000000000000000000000600082015250565b7f5368617265686f6c646572206c6973742063616e6e6f7420626520656d707479600082015250565b7f4f6e6c7920726567697374657265642075736572732063616e2063616c6c207460008201527f6869732066756e6374696f6e0000000000000000000000000000000000000000602082015250565b7f4164766572746973657220686173206e6f2062616c616e636500000000000000600082015250565b7f496e697469616c697a61626c653a20636f6e747261637420697320616c72656160008201527f647920696e697469616c697a6564000000000000000000000000000000000000602082015250565b7f4f6e6c79207472757374656420736572766963652063616e2063616c6c20746860008201527f69732066756e6374696f6e000000000000000000000000000000000000000000602082015250565b7f4f776e61626c653a2063616c6c6572206973206e6f7420746865206f776e6572600082015250565b7f5573657220616c72656164792072656769737465726564000000000000000000600082015250565b7f416d6f756e74206973206e6f7420636f72726563740000000000000000000000600082015250565b7f496e697469616c697a61626c653a20636f6e7472616374206973206e6f74206960008201527f6e697469616c697a696e67000000000000000000000000000000000000000000602082015250565b6127c68161229b565b81146127d157600080fd5b50565b6127dd816122d9565b81146127e857600080fd5b5056fea2646970667358221220f35ac9debbe9ec35134b6bc84aa77cb7bfa78d17f777a99942f6bcb74c61509f64736f6c63430008040033",
  "linkReferences": {},
  "deployedLinkReferences": {}
}